:100000000C945D000C9485000C9485000C94850084
:100010000C9485000C9485000C9485000C9485004C
:100020000C9485000C9485000C9485000C9485003C
:100030000C9485000C9485000C9485000C9485002C
:100040000C94E0020C9485000C94AE020C9488028F
:100050000C9485000C9485000C9485000C9485000C
:100060000C9485000C94850000000008000201003B
:100070000003040700000000000000000000000072
:10008000250028002B0000000000240027002A0083
:10009000040404040404040402020202020203032E
:1000A0000303030301020408102040800102040836
:1000B0001020010204081020480411241FBECFEFB5
:1000C000D8E0DEBFCDBF11E0A0E0B1E0EEE0FBE0A4
:1000D00002C005900D92A631B107D9F721E0A6E143
:1000E000B1E001C01D92AE3BB207E1F710E0CDE5F3
:1000F000D0E004C02197FE010E947A05CC35D107DB
:10010000C9F70E942A030C9485050C94000090E026
:10011000FC01EC55FF4F2491FC01E057FF4F849107
:10012000882399F090E0880F991FFC01EA57FF4F50
:10013000A591B491FC01E458FF4F859194918FB73C
:10014000F894EC91E22BEC938FBF0895CF92DF925D
:10015000EF92FF920F931F93CF93DF936C017A017D
:100160008B01C0E0D0E0CE15DF0581F0D8016D91A4
:100170008D01D601ED91FC910190F081E02DC60139
:100180000995892B11F02196EECF7E01C701DF91F1
:10019000CF911F910F91FF90EF90DF90CF90089536
:1001A000089580E090E00895FC01538D448D252F43
:1001B00030E0842F90E0821B930B541710F0CF9601
:1001C000089501970895FC01918D828D981761F033
:1001D000828DDF01A80FB11D5D968C91928D9F5F7E
:1001E0009F73928F90E008958FEF9FEF0895FC0129
:1001F000918D828D981731F0828DE80FF11D858DDC
:1002000090E008958FEF9FEF0895FC01918D228D6E
:10021000892F90E0805C9F4F821B91098F739927F3
:1002200008958FE191E00E94050121E0892B09F4F6
:1002300020E0822F0895FC01848DDF01A80FB11DFD
:10024000A35ABF4F2C91848D90E001968F7399270C
:10025000848FA689B7892C93A089B1898C918370EA
:1002600080648C93938D848D981306C00288F389E3
:10027000E02D80818F7D80830895EF92FF920F9310
:100280001F93CF93DF93EC0181E0888F9B8D8C8D42
:10029000981305C0E889F989808185FD26C0F62E6E
:1002A0000B8D10E00F5F1F4F0F731127E02E8C8D09
:1002B000E8120CC00FB607FCFACFE889F9898081F3
:1002C00085FFF5CFCE010E941B01F1CF8B8DFE0182
:1002D000E80FF11DE35AFF4FF0829FB7F8940B8FA0
:1002E000EA89FB89808180620AC09FB7F894EE8911
:1002F000FF896083E889F9898081837080648083C5
:100300009FBF81E090E0DF91CF911F910F91FF900F
:10031000EF900895CF93DF93EC01888D8823C9F087
:10032000EA89FB89808185FD05C0A889B9898C91FE
:1003300086FD0FC00FB607FCF5CF808185FFF2CF99
:10034000A889B9898C9185FFEDCFCE010E941B0150
:10035000E7CFDF91CF91089580E090E0892B29F0DD
:100360000E94110181110C940000089590E0FC019D
:10037000E859FF4F2491FC01EC55FF4F3491FC01EB
:10038000E057FF4FE491EE2309F43CC0222339F1FA
:10039000233091F038F42130A9F0223001F584B5F2
:1003A0008F7D12C0273091F02830A1F02430B9F4AD
:1003B000809180008F7D03C0809180008F77809333
:1003C00080000DC084B58F7784BD09C08091B000D6
:1003D0008F7703C08091B0008F7D8093B000F0E0F4
:1003E000EE0FFF1FE458FF4FA591B4919FB7F8940B
:1003F000611104C08C913095382302C0EC913E2BE2
:100400003C939FBF08951F93CF93DF93182FEB0169
:100410000E948700209711F460E004C0CF3FD1050F
:1004200039F461E0812FDF91CF911F910C94B601D7
:10043000E12FF0E0E859FF4FE491E330F9F048F4A0
:10044000E130B9F0E230A1F584B5806284BDC8BD69
:1004500034C0E730E9F0E83019F1E43049F5809133
:100460008000806280938000D0938B00C0938A00CC
:1004700024C084B5806884BDC7BD1FC08091800042
:10048000806880938000D0938900C093880015C055
:100490008091B00080688093B000C093B3000DC01D
:1004A0008091B00080628093B000C093B40005C01A
:1004B000C038D1050CF0B5CFAFCFDF91CF911F91F0
:1004C00008953FB7F89480911B0190911C01A09171
:1004D0001D01B0911E0126B5A89B05C02F3F19F044
:1004E0000196A11DB11D3FBFBA2FA92F982F8827B4
:1004F000820F911DA11DB11DBC01CD0142E0660F0F
:10050000771F881F991F4A95D1F708950E9480058B
:100510001F920F920FB60F9211242F933F934F9378
:100520005F936F937F938F939F93AF93BF93EF935B
:10053000FF938FE191E00E941B01FF91EF91BF912A
:10054000AF919F918F917F916F915F914F913F916B
:100550002F910F900FBE0F901F9018951F920F9222
:100560000FB60F9211242F938F939F93EF93FF93C6
:10057000E0912F01F09130018081E0913501F091FF
:10058000360182FD12C09081809138018F5F8F7398
:1005900020913901821751F0E0913801F0E0E15EDD
:1005A000FE4F958F8093380101C08081FF91EF91BC
:1005B0009F918F912F910F900FBE0F901F901895C4
:1005C0001F920F920FB60F9211242F933F938F9388
:1005D0009F93AF93BF938091170190911801A091C1
:1005E0001901B0911A013091160123E0230F2D3724
:1005F00020F40196A11DB11D05C026E8230F029627
:10060000A11DB11D2093160180931701909318012D
:10061000A0931901B0931A0180911B0190911C01C4
:10062000A0911D01B0911E010196A11DB11D8093E5
:100630001B0190931C01A0931D01B0931E01BF915B
:10064000AF919F918F913F912F910F900FBE0F907F
:100650001F901895789484B5826084BD84B58160BC
:1006600084BD85B5826085BD85B5816085BD80917D
:100670006E00816080936E001092810080918100F5
:1006800082608093810080918100816080938100ED
:10069000809180008160809380008091B1008460AF
:1006A0008093B1008091B00081608093B000809110
:1006B0007A00846080937A0080917A0082608093CF
:1006C0007A0080917A00816080937A0080917A002C
:1006D000806880937A001092C1008BE00E948700AE
:1006E00089E00E9487008AE00E948700E0912F0144
:1006F000F091300182E08083E0912B01F0912C0198
:100700001082E0912D01F0912E018FEC80831092E8
:100710003701E0913301F091340186E08083E0916C
:100720003101F0913201808180618083E09131015B
:10073000F0913201808188608083E0913101F091F5
:100740003201808180688083E0913101F091320133
:1007500080818F7D80830E94C0046093BD010E94D0
:10076000C0046093BD010E94C004C62F6093BC0109
:100770008FE191E00E940501892B09F486C00E9457
:1007800061024B015C0182E3C82ED12CE12CF12CDB
:100790000E946102DC01CB0188199909AA09BB09F1
:1007A000883E9340A105B10598F321E0C21AD10813
:1007B000E108F10888EE880E83E0981EA11CB11CA8
:1007C000C114D104E104F10419F7D0E08FE191E004
:1007D0000E940501181619060CF057C08FE191E030
:1007E0000E94E3008133910519F46FEF70E03FC080
:1007F0008233910519F460E070E010C083339105F5
:1008000041F460E070E08BE00E94030260E070E081
:1008100015C08433910541F46FEF70E08BE00E94C6
:1008200003026FEF70E028C08533910569F46FEF24
:1008300070E08BE00E9403026FEF70E089E00E949D
:1008400003026FEF70E01DC08633910519F0873306
:10085000910541F46091BD0170E08BE00E940302BC
:10086000BE010AC0C09709F0B1CF60E070E08BE034
:100870000E94030260E070E089E00E94030260E0F1
:1008800070E08AE00E940302A1CF0E94AC0163CF16
:10089000EFE1F1E01382128288EE93E0A0E0B0E095
:1008A00084839583A683B78388E091E091838083D6
:1008B00085EC90E09587848784EC90E09787868725
:1008C00080EC90E0918B808B81EC90E0938B828B1D
:1008D00082EC90E0958B848B86EC90E0978B868BF6
:1008E000118E128E138E148E08958F929F92AF9256
:1008F000BF92CF92DF92EF92FF92CF93DF93EC0102
:10090000688179818A819B816115710581059105D5
:1009100021F464E279ED8BE597E02DE133EF41E0DE
:1009200050E00E94170549015A019B01AC01A7EA5A
:10093000B1E40E9436056B017C01ACEEB4EFA50179
:1009400094010E944405DC01CB018C0D9D1DAE1D60
:10095000BF1DB7FF03C00197A109B04888839983E1
:10096000AA83BB83BC01CD019F77DF91CF91FF901C
:10097000EF90DF90CF90BF90AF909F908F900895B1
:100980008F929F92AF92BF92CF92DF92EF92FF929F
:100990006091000170910101809102019091030129
:1009A000611571058105910521F464E279ED8BE50E
:1009B00097E02DE133EF41E050E00E941705490137
:1009C0005A019B01AC01A7EAB1E40E9436056B0114
:1009D0007C01ACEEB4EFA50194010E944405DC015A
:1009E000CB018C0D9D1DAE1DBF1DB7FF03C0019730
:1009F000A109B0488093000190930101A0930201E6
:100A0000B0930301BC01CD019F77FF90EF90DF9081
:100A1000CF90BF90AF909F908F900895609300010A
:100A20007093010180930201909303010895052EB4
:100A300097FB1EF400940E942E0557FD07D00E94DC
:100A4000490507FC03D04EF40C942E0550954095B3
:100A5000309521953F4F4F4F5F4F0895909580956A
:100A6000709561957F4F8F4F9F4F08950E946B0542
:100A7000A59F900DB49F900DA49F800D911D1124F2
:100A80000895B7FF0C9436050E943605821B930B20
:100A90000895A1E21A2EAA1BBB1BFD010DC0AA1FBF
:100AA000BB1FEE1FFF1FA217B307E407F50720F0D7
:100AB000A21BB30BE40BF50B661F771F881F991F52
:100AC0001A9469F760957095809590959B01AC019B
:100AD000BD01CF010895A29FB001B39FC001A39FA4
:100AE000700D811D1124911DB29F700D811D112467
:100AF000911D0895EE0FFF1F0590F491E02D0994CC
:0E0B000081E090E0F8940C948505F894FFCF06
:100B0E0001000000000000003D01A600D4008A0193
:060B1E000501E300F700F1
:107E0000112484B714BE81FFF0D085E080938100F7
:107E100082E08093C00088E18093C10086E0809377
:107E2000C20080E18093C4008EE0C9D0259A86E02C
:107E300020E33CEF91E0309385002093840096BBD3
:107E4000B09BFECF1D9AA8958150A9F7CC24DD24C4
:107E500088248394B5E0AB2EA1E19A2EF3E0BF2EE7
:107E6000A2D0813461F49FD0082FAFD0023811F036
:107E7000013811F484E001C083E08DD089C08234E0
:107E800011F484E103C0853419F485E0A6D080C0E4
:107E9000853579F488D0E82EFF2485D0082F10E0AE
:107EA000102F00270E291F29000F111F8ED06801E7
:107EB0006FC0863521F484E090D080E0DECF843638
:107EC00009F040C070D06FD0082F6DD080E0C81688
:107ED00080E7D80618F4F601B7BEE895C0E0D1E017
:107EE00062D089930C17E1F7F0E0CF16F0E7DF06D8
:107EF00018F0F601B7BEE89568D007B600FCFDCFD4
:107F0000A601A0E0B1E02C9130E011968C91119780
:107F100090E0982F8827822B932B1296FA010C0160
:107F200087BEE89511244E5F5F4FF1E0A038BF0790
:107F300051F7F601A7BEE89507B600FCFDCF97BE46
:107F4000E89526C08437B1F42ED02DD0F82E2BD052
:107F50003CD0F601EF2C8F010F5F1F4F84911BD097
:107F6000EA94F801C1F70894C11CD11CFA94CF0C13
:107F7000D11C0EC0853739F428D08EE10CD085E9AC
:107F80000AD08FE07ACF813511F488E018D01DD067
:107F900080E101D065CF982F8091C00085FFFCCF94
:107FA0009093C60008958091C00087FFFCCF809118
:107FB000C00084FD01C0A8958091C6000895E0E648
:107FC000F0E098E1908380830895EDDF803219F02E
:107FD00088E0F5DFFFCF84E1DECF1F93182FE3DFCA
:107FE0001150E9F7F2DF1F91089580E0E8DFEE27F6
:047FF000FF270994CA
:027FFE00040479
:0400000300007E007B
:00000001FF